{"abi":[{"type":"constructor","inputs":[{"name":"_nftContract","type":"address","internalType":"contract GraspNFT"},{"name":"_rewardToken","type":"address","internalType":"contract GraspToken"}],"stateMutability":"nonpayable"},{"type":"function","name":"REWARD_MULTIPLIER","inputs":[],"outputs":[{"name":"","type":"uint256","internalType":"uint256"}],"stateMutability":"view"},{"type":"function","name":"earned","inputs":[{"name":"account","type":"address","internalType":"address"}],"outputs":[{"name":"","type":"uint256","internalType":"uint256"}],"stateMutability":"view"},{"type":"function","name":"getMultiplier","inputs":[{"name":"account","type":"address","internalType":"address"}],"outputs":[{"name":"","type":"uint256","internalType":"uint256"}],"stateMutability":"view"},{"type":"function","name":"getReward","inputs":[],"outputs":[],"stateMutability":"nonpayable"},{"type":"function","name":"lastClaimTime","inputs":[{"name":"","type":"address","internalType":"address"}],"outputs":[{"name":"","type":"uint256","internalType":"uint256"}],"stateMutability":"view"},{"type":"function","name":"lastUpdateTime","inputs":[],"outputs":[{"name":"","type":"uint256","internalType":"uint256"}],"stateMutability":"view"},{"type":"function","name":"nftContract","inputs":[],"outputs":[{"name":"","type":"address","internalType":"contract GraspNFT"}],"stateMutability":"view"},{"type":"function","name":"owner","inputs":[],"outputs":[{"name":"","type":"address","internalType":"address"}],"stateMutability":"view"},{"type":"function","name":"pause","inputs":[],"outputs":[],"stateMutability":"nonpayable"},{"type":"function","name":"paused","inputs":[],"outputs":[{"name":"","type":"bool","internalType":"bool"}],"stateMutability":"view"},{"type":"function","name":"pendingRewards","inputs":[{"name":"user","type":"address","internalType":"address"}],"outputs":[{"name":"","type":"uint256","internalType":"uint256"}],"stateMutability":"view"},{"type":"function","name":"renounceOwnership","inputs":[],"outputs":[],"stateMutability":"nonpayable"},{"type":"function","name":"rewardPerToken","inputs":[],"outputs":[{"name":"","type":"uint256","internalType":"uint256"}],"stateMutability":"view"},{"type":"function","name":"rewardPerTokenStored","inputs":[],"outputs":[{"name":"","type":"uint256","internalType":"uint256"}],"stateMutability":"view"},{"type":"function","name":"rewardRate","inputs":[],"outputs":[{"name":"","type":"uint256","internalType":"uint256"}],"stateMutability":"view"},{"type":"function","name":"rewardToken","inputs":[],"outputs":[{"name":"","type":"address","internalType":"contract GraspToken"}],"stateMutability":"view"},{"type":"function","name":"rewards","inputs":[{"name":"","type":"address","internalType":"address"}],"outputs":[{"name":"","type":"uint256","internalType":"uint256"}],"stateMutability":"view"},{"type":"function","name":"setRewardRate","inputs":[{"name":"_rewardRate","type":"uint256","internalType":"uint256"}],"outputs":[],"stateMutability":"nonpayable"},{"type":"function","name":"stake","inputs":[{"name":"tokenId","type":"uint256","internalType":"uint256"}],"outputs":[],"stateMutability":"nonpayable"},{"type":"function","name":"stakeMultiple","inputs":[{"name":"tokenIds","type":"uint256[]","internalType":"uint256[]"}],"outputs":[],"stateMutability":"nonpayable"},{"type":"function","name":"stakedTokenCount","inputs":[{"name":"","type":"address","internalType":"address"}],"outputs":[{"name":"","type":"uint256","internalType":"uint256"}],"stateMutability":"view"},{"type":"function","name":"tokenOwner","inputs":[{"name":"","type":"uint256","internalType":"uint256"}],"outputs":[{"name":"","type":"address","internalType":"address"}],"stateMutability":"view"},{"type":"function","name":"totalStaked","inputs":[],"outputs":[{"name":"","type":"uint256","internalType":"uint256"}],"stateMutability":"view"},{"type":"function","name":"transferOwnership","inputs":[{"name":"newOwner","type":"address","internalType":"address"}],"outputs":[],"stateMutability":"nonpayable"},{"type":"function","name":"unpause","inputs":[],"outputs":[],"stateMutability":"nonpayable"},{"type":"function","name":"userRewardPerTokenPaid","inputs":[{"name":"","type":"address","internalType":"address"}],"outputs":[{"name":"","type":"uint256","internalType":"uint256"}],"stateMutability":"view"},{"type":"function","name":"withdraw","inputs":[{"name":"tokenId","type":"uint256","internalType":"uint256"}],"outputs":[],"stateMutability":"nonpayable"},{"type":"function","name":"withdrawMultiple","inputs":[{"name":"tokenIds","type":"uint256[]","internalType":"uint256[]"}],"outputs":[],"stateMutability":"nonpayable"},{"type":"event","name":"OwnershipTransferred","inputs":[{"name":"previousOwner","type":"address","indexed":true,"internalType":"address"},{"name":"newOwner","type":"address","indexed":true,"internalType":"address"}],"anonymous":false},{"type":"event","name":"Paused","inputs":[{"name":"account","type":"address","indexed":false,"internalType":"address"}],"anonymous":false},{"type":"event","name":"RewardPaid","inputs":[{"name":"user","type":"address","indexed":true,"internalType":"address"},{"name":"reward","type":"uint256","indexed":false,"internalType":"uint256"}],"anonymous":false},{"type":"event","name":"RewardRateUpdated","inputs":[{"name":"newRate","type":"uint256","indexed":false,"internalType":"uint256"}],"anonymous":false},{"type":"event","name":"Staked","inputs":[{"name":"user","type":"address","indexed":true,"internalType":"address"},{"name":"tokenId","type":"uint256","indexed":false,"internalType":"uint256"}],"anonymous":false},{"type":"event","name":"Unpaused","inputs":[{"name":"account","type":"address","indexed":false,"internalType":"address"}],"anonymous":false},{"type":"event","name":"Withdrawn","inputs":[{"name":"user","type":"address","indexed":true,"internalType":"address"},{"name":"tokenId","type":"uint256","indexed":false,"internalType":"uint256"}],"anonymous":false},{"type":"error","name":"EnforcedPause","inputs":[]},{"type":"error","name":"ExpectedPause","inputs":[]},{"type":"error","name":"OwnableInvalidOwner","inputs":[{"name":"owner","type":"address","internalType":"address"}]},{"type":"error","name":"OwnableUnauthorizedAccount","inputs":[{"name":"account","type":"address","internalType":"address"}]},{"type":"error","name":"ReentrancyGuardReentrantCall","inputs":[]}],"bytecode":{"object":"0x60c060405234801561001057600080fd5b5060405161142938038061142983398101604081905261002f916100ec565b338061005557604051631e4fbdf760e01b81526000600482015260240160405180910390fd5b61005e81610084565b50600180556002805460ff191690556001600160a01b039182166080521660a052610126565b600080546001600160a01b038381166001600160a01b0319831681178455604051919092169283917f8be0079c531659141344cd1fd0a4f28419497f9722a3daafe3b4186f6b6457e09190a35050565b6001600160a01b03811681146100e957600080fd5b50565b600080604083850312156100ff57600080fd5b825161010a816100d4565b602084015190925061011b816100d4565b809150509250929050565b60805160a0516112b4610175600039600081816103f0015261071701526000818161039a0152818161055f0152818161093601528181610a1901528181610b840152610d0e01526112b46000f3fe608060405234801561001057600080fd5b50600436106101c35760003560e01c80638b876347116100f9578063c8f33c9111610097578063df136d6511610071578063df136d65146103bc578063e5b79106146103c5578063f2fde38b146103d8578063f7c618c1146103eb57600080fd5b8063c8f33c9114610384578063cd3daf9d1461038d578063d56d229d1461039557600080fd5b8063a694fc3a116100d3578063a694fc3a1461032b578063a9c695531461033e578063a9d637e114610351578063b77cf9c61461036457600080fd5b80638b876347146102e75780638da5cb5b146103075780639e447fc61461031857600080fd5b80633f4ba83a11610166578063715018a611610140578063715018a6146102c55780637b0a47ee146102cd578063817b1cd2146102d65780638456cb59146102df57600080fd5b80633f4ba83a1461029f578063598b47dd146102a75780635c975abb146102af57600080fd5b80631caaa487116101a25780631caaa4871461022e5780632e1a7d4d1461026f57806331d7a262146102845780633d18b9121461029757600080fd5b80628cc262146101c85780630700037d146101ee578063089642df1461020e575b600080fd5b6101db6101d63660046110b9565b610412565b6040519081526020015b60405180910390f35b6101db6101fc3660046110b9565b60096020526000908152604090205481565b6101db61021c3660046110b9565b60076020526000908152604090205481565b61025761023c3660046110dd565b6006602052600090815260409020546001600160a01b031681565b6040516001600160a01b0390911681526020016101e5565b61028261027d3660046110dd565b6104b9565b005b6101db6102923660046110b9565b610654565b610282610665565b6102826107df565b6101db609681565b60025460ff1660405190151581526020016101e5565b6102826107ef565b6101db60035481565b6101db600a5481565b610282610801565b6101db6102f53660046110b9565b60086020526000908152604090205481565b6000546001600160a01b0316610257565b6102826103263660046110dd565b610811565b6102826103393660046110dd565b6108b2565b61028261034c3660046110f6565b610b27565b6101db61035f3660046110b9565b610b60565b6101db6103723660046110b9565b600b6020526000908152604090205481565b6101db60045481565b6101db610c03565b6102577f000000000000000000000000000000000000000000000000000000000000000081565b6101db60055481565b6102826103d33660046110f6565b610c61565b6102826103e63660046110b9565b610e97565b6102577f000000000000000000000000000000000000000000000000000000000000000081565b6001600160a01b0381166000908152600960209081526040808320546008909252822054829190670de0b6b3a76400009061044b610c03565b6104559190611181565b6001600160a01b0386166000908152600760205260409020546104789190611194565b61048291906111ab565b61048c91906111cd565b9050600061049984610b60565b905060646104a78284611194565b6104b191906111ab565b949350505050565b6104c1610ed2565b6104c9610efc565b6104d233610f20565b6000818152600660205260409020546001600160a01b0316331461053d5760405162461bcd60e51b815260206004820152601b60248201527f4e6f7420746865207374616b6572206f662074686520746f6b656e000000000060448201526064015b60405180910390fd5b6040516323b872dd60e01b8152306004820152336024820152604481018290527f00000000000000000000000000000000000000000000000000000000000000006001600160a01b0316906323b872dd90606401600060405180830381600087803b1580156105ab57600080fd5b505af11580156105bf573d6000803e3d6000fd5b505050600082815260066020908152604080832080546001600160a01b03191690553383526007909152812080549250906105f9836111e0565b9091555050600a805490600061060e836111e0565b909155505060405181815233907f7084f5476618d8e60b11ef0d7d3f06914655adb8793e28ff7f018d4c76d505d59060200160405180910390a261065160018055565b50565b600061065f82610412565b92915050565b61066d610ed2565b610675610efc565b3361067e610c03565b600555426004556001600160a01b038116156106c95761069d81610412565b6001600160a01b0382166000908152600960209081526040808320939093556005546008909152919020555b3360009081526009602052604090205480156107d25733600081815260096020526040808220919091555163a9059cbb60e01b81526004810191909152602481018290526001600160a01b037f0000000000000000000000000000000000000000000000000000000000000000169063a9059cbb906044016020604051808303816000875af1158015610760573d6000803e3d6000fd5b505050506040513d601f19601f8201168201806040525081019061078491906111f7565b50336000818152600b602052604090819020429055517fe2403640ba68fed3a2f88b7557551d1993f84b99bb10ff833f0cf8db0c5e0486906107c99084815260200190565b60405180910390a25b50506107dd60018055565b565b6107e7610f75565b6107dd610fa2565b6107f7610f75565b6107dd6000610ff4565b610809610f75565b6107dd611044565b610819610f75565b610821610efc565b600061082b610c03565b600555426004556001600160a01b038116156108765761084a81610412565b6001600160a01b0382166000908152600960209081526040808320939093556005546008909152919020555b60038290556040518281527f41d466ebd06fb97e7786086ac8b69b7eb7da798592036251291d34e9791cde019060200160405180910390a15050565b6108ba610ed2565b6108c2610efc565b336108cb610c03565b600555426004556001600160a01b03811615610916576108ea81610412565b6001600160a01b0382166000908152600960209081526040808320939093556005546008909152919020555b6040516331a9108f60e11b81526004810183905233906001600160a01b037f00000000000000000000000000000000000000000000000000000000000000001690636352211e90602401602060405180830381865afa15801561097d573d6000803e3d6000fd5b505050506040513d601f19601f820116820180604052508101906109a19190611219565b6001600160a01b0316146109f75760405162461bcd60e51b815260206004820152601a60248201527f4e6f7420746865206f776e6572206f662074686520746f6b656e0000000000006044820152606401610534565b6040516323b872dd60e01b8152336004820152306024820152604481018390527f00000000000000000000000000000000000000000000000000000000000000006001600160a01b0316906323b872dd90606401600060405180830381600087803b158015610a6557600080fd5b505af1158015610a79573d6000803e3d6000fd5b505050600083815260066020908152604080832080546001600160a01b031916339081179091558352600790915281208054925090610ab783611236565b9091555050600a8054906000610acc83611236565b9091555050336000818152600b602052604090819020429055517f9e71bc8eea02a63969f509818f2dafb9254532904319f9dbda79b67bd34a5f3d90610b159085815260200190565b60405180910390a25061065160018055565b60005b81811015610b5b57610b53838383818110610b4757610b4761124f565b905060200201356108b2565b600101610b2a565b505050565b6040516370a0823160e01b81526001600160a01b03828116600483015260009182917f000000000000000000000000000000000000000000000000000000000000000016906370a0823190602401602060405180830381865afa158015610bcb573d6000803e3d6000fd5b505050506040513d601f19601f82011682018060405250810190610bef9190611265565b11610bfb57606461065f565b609692915050565b6000600a54600003610c16575060055490565b600a54600354600454610c299042611181565b610c339190611194565b610c4590670de0b6b3a7640000611194565b610c4f91906111ab565b600554610c5c91906111cd565b905090565b610c69610ed2565b610c71610efc565b610c7a33610f20565b60005b81811015610e38573360066000858585818110610c9c57610c9c61124f565b60209081029290920135835250810191909152604001600020546001600160a01b031614610d0c5760405162461bcd60e51b815260206004820152601b60248201527f4e6f7420746865207374616b6572206f662074686520746f6b656e00000000006044820152606401610534565b7f00000000000000000000000000000000000000000000000000000000000000006001600160a01b03166323b872dd3033868686818110610d4f57610d4f61124f565b6040516001600160e01b031960e088901b1681526001600160a01b03958616600482015294909316602485015250602090910201356044820152606401600060405180830381600087803b158015610da657600080fd5b505af1158015610dba573d6000803e3d6000fd5b5050505060066000848484818110610dd457610dd461124f565b60209081029290920135835250818101929092526040908101600090812080546001600160a01b031916905533815260079092528120805491610e16836111e0565b9091555050600a8054906000610e2b836111e0565b9091555050600101610c7d565b50337f7084f5476618d8e60b11ef0d7d3f06914655adb8793e28ff7f018d4c76d505d58383600081610e6c57610e6c61124f565b90506020020135604051610e8291815260200190565b60405180910390a2610e9360018055565b5050565b610e9f610f75565b6001600160a01b038116610ec957604051631e4fbdf760e01b815260006004820152602401610534565b61065181610ff4565b600260015403610ef557604051633ee5aeb560e01b815260040160405180910390fd5b6002600155565b60025460ff16156107dd5760405163d93c066560e01b815260040160405180910390fd5b610f28610c03565b600555426004556001600160a01b0381161561065157610f4781610412565b6001600160a01b03821660009081526009602090815260408083209390935560055460089091529190205550565b6000546001600160a01b031633146107dd5760405163118cdaa760e01b8152336004820152602401610534565b610faa611081565b6002805460ff191690557f5db9ee0a495bf2e6ff9c91a7834c1ba4fdd244a5e8aa4e537bd38aeae4b073aa335b6040516001600160a01b03909116815260200160405180910390a1565b600080546001600160a01b038381166001600160a01b0319831681178455604051919092169283917f8be0079c531659141344cd1fd0a4f28419497f9722a3daafe3b4186f6b6457e09190a35050565b61104c610efc565b6002805460ff191660011790557f62e78cea01bee320cd4e420270b5ea74000d11b0c9f74754ebdbfc544b05a258610fd73390565b60025460ff166107dd57604051638dfc202b60e01b815260040160405180910390fd5b6001600160a01b038116811461065157600080fd5b6000602082840312156110cb57600080fd5b81356110d6816110a4565b9392505050565b6000602082840312156110ef57600080fd5b5035919050565b6000806020838503121561110957600080fd5b823567ffffffffffffffff8082111561112157600080fd5b818501915085601f83011261113557600080fd5b81358181111561114457600080fd5b8660208260051b850101111561115957600080fd5b60209290920196919550909350505050565b634e487b7160e01b600052601160045260246000fd5b8181038181111561065f5761065f61116b565b808202811582820484141761065f5761065f61116b565b6000826111c857634e487b7160e01b600052601260045260246000fd5b500490565b8082018082111561065f5761065f61116b565b6000816111ef576111ef61116b565b506000190190565b60006020828403121561120957600080fd5b815180151581146110d657600080fd5b60006020828403121561122b57600080fd5b81516110d6816110a4565b6000600182016112485761124861116b565b5060010190565b634e487b7160e01b600052603260045260246000fd5b60006020828403121561127757600080fd5b505191905056fea26469706673582212202413a9597ca6cd541cd477f4a972c694244c89d5972528a309cfe5c1eb85272864736f6c63430008190033","linkReferences":{}},"methodIdentifiers":{"REWARD_MULTIPLIER()":"598b47dd","earned(address)":"008cc262","getMultiplier(address)":"a9d637e1","getReward()":"3d18b912","lastClaimTime(address)":"b77cf9c6","lastUpdateTime()":"c8f33c91","nftContract()":"d56d229d","owner()":"8da5cb5b","pause()":"8456cb59","paused()":"5c975abb","pendingRewards(address)":"31d7a262","renounceOwnership()":"715018a6","rewardPerToken()":"cd3daf9d","rewardPerTokenStored()":"df136d65","rewardRate()":"7b0a47ee","rewardToken()":"f7c618c1","rewards(address)":"0700037d","setRewardRate(uint256)":"9e447fc6","stake(uint256)":"a694fc3a","stakeMultiple(uint256[])":"a9c69553","stakedTokenCount(address)":"089642df","tokenOwner(uint256)":"1caaa487","totalStaked()":"817b1cd2","transferOwnership(address)":"f2fde38b","unpause()":"3f4ba83a","userRewardPerTokenPaid(address)":"8b876347","withdraw(uint256)":"2e1a7d4d","withdrawMultiple(uint256[])":"e5b79106"},"id":73}