{"abi":[{"type":"constructor","inputs":[{"name":"_stakingToken","type":"address","internalType":"contract GraspToken"}],"stateMutability":"nonpayable"},{"type":"function","name":"allowance","inputs":[{"name":"owner","type":"address","internalType":"address"},{"name":"spender","type":"address","internalType":"address"}],"outputs":[{"name":"","type":"uint256","internalType":"uint256"}],"stateMutability":"view"},{"type":"function","name":"approve","inputs":[{"name":"spender","type":"address","internalType":"address"},{"name":"value","type":"uint256","internalType":"uint256"}],"outputs":[{"name":"","type":"bool","internalType":"bool"}],"stateMutability":"nonpayable"},{"type":"function","name":"balanceOf","inputs":[{"name":"account","type":"address","internalType":"address"}],"outputs":[{"name":"","type":"uint256","internalType":"uint256"}],"stateMutability":"view"},{"type":"function","name":"decimals","inputs":[],"outputs":[{"name":"","type":"uint8","internalType":"uint8"}],"stateMutability":"view"},{"type":"function","name":"depositFor","inputs":[{"name":"account","type":"address","internalType":"address"},{"name":"value","type":"uint256","internalType":"uint256"}],"outputs":[{"name":"","type":"bool","internalType":"bool"}],"stateMutability":"nonpayable"},{"type":"function","name":"earned","inputs":[{"name":"account","type":"address","internalType":"address"}],"outputs":[{"name":"","type":"uint256","internalType":"uint256"}],"stateMutability":"view"},{"type":"function","name":"getReward","inputs":[],"outputs":[],"stateMutability":"nonpayable"},{"type":"function","name":"lastUpdateTime","inputs":[],"outputs":[{"name":"","type":"uint256","internalType":"uint256"}],"stateMutability":"view"},{"type":"function","name":"name","inputs":[],"outputs":[{"name":"","type":"string","internalType":"string"}],"stateMutability":"view"},{"type":"function","name":"owner","inputs":[],"outputs":[{"name":"","type":"address","internalType":"address"}],"stateMutability":"view"},{"type":"function","name":"pause","inputs":[],"outputs":[],"stateMutability":"nonpayable"},{"type":"function","name":"paused","inputs":[],"outputs":[{"name":"","type":"bool","internalType":"bool"}],"stateMutability":"view"},{"type":"function","name":"renounceOwnership","inputs":[],"outputs":[],"stateMutability":"nonpayable"},{"type":"function","name":"rewardPerToken","inputs":[],"outputs":[{"name":"","type":"uint256","internalType":"uint256"}],"stateMutability":"view"},{"type":"function","name":"rewardPerTokenStored","inputs":[],"outputs":[{"name":"","type":"uint256","internalType":"uint256"}],"stateMutability":"view"},{"type":"function","name":"rewardRate","inputs":[],"outputs":[{"name":"","type":"uint256","internalType":"uint256"}],"stateMutability":"view"},{"type":"function","name":"rewards","inputs":[{"name":"","type":"address","internalType":"address"}],"outputs":[{"name":"","type":"uint256","internalType":"uint256"}],"stateMutability":"view"},{"type":"function","name":"setRewardRate","inputs":[{"name":"_rewardRate","type":"uint256","internalType":"uint256"}],"outputs":[],"stateMutability":"nonpayable"},{"type":"function","name":"stake","inputs":[{"name":"amount","type":"uint256","internalType":"uint256"}],"outputs":[],"stateMutability":"nonpayable"},{"type":"function","name":"stakingToken","inputs":[],"outputs":[{"name":"","type":"address","internalType":"contract GraspToken"}],"stateMutability":"view"},{"type":"function","name":"symbol","inputs":[],"outputs":[{"name":"","type":"string","internalType":"string"}],"stateMutability":"view"},{"type":"function","name":"totalSupply","inputs":[],"outputs":[{"name":"","type":"uint256","internalType":"uint256"}],"stateMutability":"view"},{"type":"function","name":"transfer","inputs":[{"name":"to","type":"address","internalType":"address"},{"name":"value","type":"uint256","internalType":"uint256"}],"outputs":[{"name":"","type":"bool","internalType":"bool"}],"stateMutability":"nonpayable"},{"type":"function","name":"transferFrom","inputs":[{"name":"from","type":"address","internalType":"address"},{"name":"to","type":"address","internalType":"address"},{"name":"value","type":"uint256","internalType":"uint256"}],"outputs":[{"name":"","type":"bool","internalType":"bool"}],"stateMutability":"nonpayable"},{"type":"function","name":"transferOwnership","inputs":[{"name":"newOwner","type":"address","internalType":"address"}],"outputs":[],"stateMutability":"nonpayable"},{"type":"function","name":"underlying","inputs":[],"outputs":[{"name":"","type":"address","internalType":"contract IERC20"}],"stateMutability":"view"},{"type":"function","name":"unpause","inputs":[],"outputs":[],"stateMutability":"nonpayable"},{"type":"function","name":"userRewardPerTokenPaid","inputs":[{"name":"","type":"address","internalType":"address"}],"outputs":[{"name":"","type":"uint256","internalType":"uint256"}],"stateMutability":"view"},{"type":"function","name":"withdraw","inputs":[{"name":"amount","type":"uint256","internalType":"uint256"}],"outputs":[],"stateMutability":"nonpayable"},{"type":"function","name":"withdrawTo","inputs":[{"name":"account","type":"address","internalType":"address"},{"name":"value","type":"uint256","internalType":"uint256"}],"outputs":[{"name":"","type":"bool","internalType":"bool"}],"stateMutability":"nonpayable"},{"type":"event","name":"Approval","inputs":[{"name":"owner","type":"address","indexed":true,"internalType":"address"},{"name":"spender","type":"address","indexed":true,"internalType":"address"},{"name":"value","type":"uint256","indexed":false,"internalType":"uint256"}],"anonymous":false},{"type":"event","name":"OwnershipTransferred","inputs":[{"name":"previousOwner","type":"address","indexed":true,"internalType":"address"},{"name":"newOwner","type":"address","indexed":true,"internalType":"address"}],"anonymous":false},{"type":"event","name":"Paused","inputs":[{"name":"account","type":"address","indexed":false,"internalType":"address"}],"anonymous":false},{"type":"event","name":"RewardRateUpdated","inputs":[{"name":"newRate","type":"uint256","indexed":false,"internalType":"uint256"}],"anonymous":false},{"type":"event","name":"Staked","inputs":[{"name":"user","type":"address","indexed":true,"internalType":"address"},{"name":"amount","type":"uint256","indexed":false,"internalType":"uint256"}],"anonymous":false},{"type":"event","name":"Transfer","inputs":[{"name":"from","type":"address","indexed":true,"internalType":"address"},{"name":"to","type":"address","indexed":true,"internalType":"address"},{"name":"value","type":"uint256","indexed":false,"internalType":"uint256"}],"anonymous":false},{"type":"event","name":"Unpaused","inputs":[{"name":"account","type":"address","indexed":false,"internalType":"address"}],"anonymous":false},{"type":"event","name":"Withdrawn","inputs":[{"name":"user","type":"address","indexed":true,"internalType":"address"},{"name":"amount","type":"uint256","indexed":false,"internalType":"uint256"}],"anonymous":false},{"type":"error","name":"AddressEmptyCode","inputs":[{"name":"target","type":"address","internalType":"address"}]},{"type":"error","name":"AddressInsufficientBalance","inputs":[{"name":"account","type":"address","internalType":"address"}]},{"type":"error","name":"ERC20InsufficientAllowance","inputs":[{"name":"spender","type":"address","internalType":"address"},{"name":"allowance","type":"uint256","internalType":"uint256"},{"name":"needed","type":"uint256","internalType":"uint256"}]},{"type":"error","name":"ERC20InsufficientBalance","inputs":[{"name":"sender","type":"address","internalType":"address"},{"name":"balance","type":"uint256","internalType":"uint256"},{"name":"needed","type":"uint256","internalType":"uint256"}]},{"type":"error","name":"ERC20InvalidApprover","inputs":[{"name":"approver","type":"address","internalType":"address"}]},{"type":"error","name":"ERC20InvalidReceiver","inputs":[{"name":"receiver","type":"address","internalType":"address"}]},{"type":"error","name":"ERC20InvalidSender","inputs":[{"name":"sender","type":"address","internalType":"address"}]},{"type":"error","name":"ERC20InvalidSpender","inputs":[{"name":"spender","type":"address","internalType":"address"}]},{"type":"error","name":"ERC20InvalidUnderlying","inputs":[{"name":"token","type":"address","internalType":"address"}]},{"type":"error","name":"EnforcedPause","inputs":[]},{"type":"error","name":"ExpectedPause","inputs":[]},{"type":"error","name":"FailedInnerCall","inputs":[]},{"type":"error","name":"OwnableInvalidOwner","inputs":[{"name":"owner","type":"address","internalType":"address"}]},{"type":"error","name":"OwnableUnauthorizedAccount","inputs":[{"name":"account","type":"address","internalType":"address"}]},{"type":"error","name":"ReentrancyGuardReentrantCall","inputs":[]},{"type":"error","name":"SafeERC20FailedOperation","inputs":[{"name":"token","type":"address","internalType":"address"}]}],"bytecode":{"object":"0x60c060405234801561001057600080fd5b50604051611ad6380380611ad683398101604081905261002f91610171565b33816040518060400160405280600c81526020016b05374616b65642047726173760a41b8152506040518060400160405280600681526020016507347524153560d41b81525081600390816100849190610242565b5060046100918282610242565b5050306001600160a01b0383160390506100c55760405163438d6fe360e01b81523060048201526024015b60405180910390fd5b6001600160a01b0390811660805281166100f557604051631e4fbdf760e01b8152600060048201526024016100bc565b6100fe8161011f565b5060016006556007805460ff191690556001600160a01b031660a052610301565b600580546001600160a01b038381166001600160a01b0319831681179093556040519116919082907f8be0079c531659141344cd1fd0a4f28419497f9722a3daafe3b4186f6b6457e090600090a35050565b60006020828403121561018357600080fd5b81516001600160a01b038116811461019a57600080fd5b9392505050565b634e487b7160e01b600052604160045260246000fd5b600181811c908216806101cb57607f821691505b6020821081036101eb57634e487b7160e01b600052602260045260246000fd5b50919050565b601f82111561023d576000816000526020600020601f850160051c8101602086101561021a5750805b601f850160051c820191505b8181101561023957828155600101610226565b5050505b505050565b81516001600160401b0381111561025b5761025b6101a1565b61026f8161026984546101b7565b846101f1565b602080601f8311600181146102a4576000841561028c5750858301515b600019600386901b1c1916600185901b178555610239565b600085815260208120601f198616915b828110156102d3578886015182559484019460019091019084016102b4565b50858210156102f15787850151600019600388901b60f8161c191681555b5050505050600190811b01905550565b60805160a05161178d610349600039600081816103570152818161090801526109c60152600081816102e9015281816105d30152818161079c01526107d1015261178d6000f3fe608060405234801561001057600080fd5b50600436106101d95760003560e01c8063715018a6116101045780639e447fc6116100a2578063cd3daf9d11610071578063cd3daf9d14610405578063dd62ed3e1461040d578063df136d6514610446578063f2fde38b1461044f57600080fd5b80639e447fc6146103c3578063a694fc3a146103d6578063a9059cbb146103e9578063c8f33c91146103fc57600080fd5b80638456cb59116100de5780638456cb59146103825780638b8763471461038a5780638da5cb5b146103aa57806395d89b41146103bb57600080fd5b8063715018a61461034a57806372f702f3146103525780637b0a47ee1461037957600080fd5b80632e1a7d4d1161017c5780633f4ba83a1161014b5780633f4ba83a146102d45780635c975abb146102dc5780636f307dc3146102e757806370a082311461032157600080fd5b80632e1a7d4d1461028a5780632f4f21e21461029f578063313ce567146102b25780633d18b912146102cc57600080fd5b8063095ea7b3116101b8578063095ea7b31461023957806318160ddd1461025c578063205c28781461026457806323b872dd1461027757600080fd5b80628cc262146101de57806306fdde03146102045780630700037d14610219575b600080fd5b6101f16101ec36600461150a565b610462565b6040519081526020015b60405180910390f35b61020c6104df565b6040516101fb9190611549565b6101f161022736600461150a565b600c6020526000908152604090205481565b61024c61024736600461157c565b610571565b60405190151581526020016101fb565b6002546101f1565b61024c61027236600461157c565b610589565b61024c6102853660046115a6565b610602565b61029d6102983660046115e2565b610628565b005b61024c6102ad36600461157c565b61073e565b6102ba6107cd565b60405160ff90911681526020016101fb565b61029d61085d565b61029d6109fa565b60075460ff1661024c565b7f00000000000000000000000000000000000000000000000000000000000000005b6040516001600160a01b0390911681526020016101fb565b6101f161032f36600461150a565b6001600160a01b031660009081526020819052604090205490565b61029d610a0a565b6103097f000000000000000000000000000000000000000000000000000000000000000081565b6101f160085481565b61029d610a1c565b6101f161039836600461150a565b600b6020526000908152604090205481565b6005546001600160a01b0316610309565b61020c610a2c565b61029d6103d13660046115e2565b610a3b565b61029d6103e43660046115e2565b610adc565b61024c6103f736600461157c565b610b8b565b6101f160095481565b6101f1610b99565b6101f161041b3660046115fb565b6001600160a01b03918216600090815260016020908152604080832093909416825291909152205490565b6101f1600a5481565b61029d61045d36600461150a565b610bf8565b6001600160a01b0381166000908152600c6020908152604080832054600b909252822054670de0b6b3a764000090610498610b99565b6104a29190611644565b6001600160a01b0385166000908152602081905260409020546104c59190611657565b6104cf919061166e565b6104d99190611690565b92915050565b6060600380546104ee906116a3565b80601f016020809104026020016040519081016040528092919081815260200182805461051a906116a3565b80156105675780601f1061053c57610100808354040283529160200191610567565b820191906000526020600020905b81548152906001019060200180831161054a57829003601f168201915b5050505050905090565b60003361057f818585610c33565b5060019392505050565b6000306001600160a01b038416036105c45760405163ec442f0560e01b81526001600160a01b03841660048201526024015b60405180910390fd5b6105ce3383610c45565b6105f97f00000000000000000000000000000000000000000000000000000000000000008484610c7f565b50600192915050565b600033610610858285610cde565b61061b858585610d5c565b60019150505b9392505050565b610630610dbb565b610638610de5565b33610641610b99565b600a55426009556001600160a01b0381161561068c5761066081610462565b6001600160a01b0382166000908152600c6020908152604080832093909355600a54600b909152919020555b600082116106d05760405162461bcd60e51b8152602060048201526011602482015270043616e6e6f74207769746864726177203607c1b60448201526064016105bb565b336000908152602081905260409020548211156107265760405162461bcd60e51b8152602060048201526014602482015273496e73756666696369656e742062616c616e636560601b60448201526064016105bb565b6107303383610e09565b5061073b6001600655565b50565b60003330810361076357604051634b637e8f60e11b81523060048201526024016105bb565b306001600160a01b038516036107975760405163ec442f0560e01b81526001600160a01b03851660048201526024016105bb565b6107c37f0000000000000000000000000000000000000000000000000000000000000000823086610f00565b61057f8484610f39565b60007f00000000000000000000000000000000000000000000000000000000000000006001600160a01b031663313ce5676040518163ffffffff1660e01b8152600401602060405180830381865afa925050508015610849575060408051601f3d908101601f19168201909252610846918101906116dd565b60015b6108585750601290565b905090565b919050565b610865610dbb565b61086d610de5565b33610876610b99565b600a55426009556001600160a01b038116156108c15761089581610462565b6001600160a01b0382166000908152600c6020908152604080832093909355600a54600b909152919020555b336000908152600c602052604090205480156109ec57336000908152600c602052604080822091909155516370a0823160e01b815230600482015281906001600160a01b037f000000000000000000000000000000000000000000000000000000000000000016906370a0823190602401602060405180830381865afa15801561094f573d6000803e3d6000fd5b505050506040513d601f19601f820116820180604052508101906109739190611700565b10156109c15760405162461bcd60e51b815260206004820152601a60248201527f496e73756666696369656e742072657761726420746f6b656e7300000000000060448201526064016105bb565b6109ec7f00000000000000000000000000000000000000000000000000000000000000003383610c7f565b50506109f86001600655565b565b610a02610f6f565b6109f8610f9c565b610a12610f6f565b6109f86000610fee565b610a24610f6f565b6109f8611040565b6060600480546104ee906116a3565b610a43610f6f565b610a4b610de5565b6000610a55610b99565b600a55426009556001600160a01b03811615610aa057610a7481610462565b6001600160a01b0382166000908152600c6020908152604080832093909355600a54600b909152919020555b60088290556040518281527f41d466ebd06fb97e7786086ac8b69b7eb7da798592036251291d34e9791cde019060200160405180910390a15050565b610ae4610dbb565b610aec610de5565b33610af5610b99565b600a55426009556001600160a01b03811615610b4057610b1481610462565b6001600160a01b0382166000908152600c6020908152604080832093909355600a54600b909152919020555b60008211610b815760405162461bcd60e51b815260206004820152600e60248201526d043616e6e6f74207374616b6520360941b60448201526064016105bb565b610730338361107d565b60003361057f818585610d5c565b6000610ba460025490565b600003610bb25750600a5490565b600254600854600954610bc59042611644565b610bcf9190611657565b610be190670de0b6b3a7640000611657565b610beb919061166e565b600a546108539190611690565b610c00610f6f565b6001600160a01b038116610c2a57604051631e4fbdf760e01b8152600060048201526024016105bb565b61073b81610fee565b610c408383836001611167565b505050565b6001600160a01b038216610c6f57604051634b637e8f60e11b8152600060048201526024016105bb565b610c7b8260008361123c565b5050565b6040516001600160a01b03838116602483015260448201839052610c4091859182169063a9059cbb906064015b604051602081830303815290604052915060e01b6020820180516001600160e01b038381831617835250505050611366565b6001600160a01b038381166000908152600160209081526040808320938616835292905220546000198114610d565781811015610d4757604051637dc7a0d960e11b81526001600160a01b038416600482015260248101829052604481018390526064016105bb565b610d5684848484036000611167565b50505050565b6001600160a01b038316610d8657604051634b637e8f60e11b8152600060048201526024016105bb565b6001600160a01b038216610db05760405163ec442f0560e01b8152600060048201526024016105bb565b610c4083838361123c565b600260065403610dde57604051633ee5aeb560e01b815260040160405180910390fd5b6002600655565b60075460ff16156109f85760405163d93c066560e01b815260040160405180910390fd5b81610e12610b99565b600a55426009556001600160a01b03811615610e5d57610e3181610462565b6001600160a01b0382166000908152600c6020908152604080832093909355600a54600b909152919020555b60008211610ead5760405162461bcd60e51b815260206004820152601860248201527f43616e6e6f74207769746864726177203020746f6b656e73000000000000000060448201526064016105bb565b610eb78383610589565b50826001600160a01b03167f7084f5476618d8e60b11ef0d7d3f06914655adb8793e28ff7f018d4c76d505d583604051610ef391815260200190565b60405180910390a2505050565b6040516001600160a01b038481166024830152838116604483015260648201839052610d569186918216906323b872dd90608401610cac565b6001600160a01b038216610f635760405163ec442f0560e01b8152600060048201526024016105bb565b610c7b6000838361123c565b6005546001600160a01b031633146109f85760405163118cdaa760e01b81523360048201526024016105bb565b610fa46113c9565b6007805460ff191690557f5db9ee0a495bf2e6ff9c91a7834c1ba4fdd244a5e8aa4e537bd38aeae4b073aa335b6040516001600160a01b03909116815260200160405180910390a1565b600580546001600160a01b038381166001600160a01b0319831681179093556040519116919082907f8be0079c531659141344cd1fd0a4f28419497f9722a3daafe3b4186f6b6457e090600090a35050565b611048610de5565b6007805460ff191660011790557f62e78cea01bee320cd4e420270b5ea74000d11b0c9f74754ebdbfc544b05a258610fd13390565b81611086610b99565b600a55426009556001600160a01b038116156110d1576110a581610462565b6001600160a01b0382166000908152600c6020908152604080832093909355600a54600b909152919020555b600082116111215760405162461bcd60e51b815260206004820152601760248201527f43616e6e6f74206465706f736974203020746f6b656e7300000000000000000060448201526064016105bb565b61112b838361073e565b50826001600160a01b03167f9e71bc8eea02a63969f509818f2dafb9254532904319f9dbda79b67bd34a5f3d83604051610ef391815260200190565b6001600160a01b0384166111915760405163e602df0560e01b8152600060048201526024016105bb565b6001600160a01b0383166111bb57604051634a1406b160e11b8152600060048201526024016105bb565b6001600160a01b0380851660009081526001602090815260408083209387168352929052208290558015610d5657826001600160a01b0316846001600160a01b03167f8c5be1e5ebec7d5bd14f71427d1e84f3dd0314c0f7b2291e5b200ac8c7c3b9258460405161122e91815260200190565b60405180910390a350505050565b6001600160a01b03831661126757806002600082825461125c9190611690565b909155506112d99050565b6001600160a01b038316600090815260208190526040902054818110156112ba5760405163391434e360e21b81526001600160a01b038516600482015260248101829052604481018390526064016105bb565b6001600160a01b03841660009081526020819052604090209082900390555b6001600160a01b0382166112f557600280548290039055611314565b6001600160a01b03821660009081526020819052604090208054820190555b816001600160a01b0316836001600160a01b03167fddf252ad1be2c89b69c2b068fc378daa952ba7f163c4a11628f55a4df523b3ef8360405161135991815260200190565b60405180910390a3505050565b600061137b6001600160a01b038416836113ec565b905080516000141580156113a057508080602001905181019061139e9190611719565b155b15610c4057604051635274afe760e01b81526001600160a01b03841660048201526024016105bb565b60075460ff166109f857604051638dfc202b60e01b815260040160405180910390fd5b60606106218383600084600080856001600160a01b03168486604051611412919061173b565b60006040518083038185875af1925050503d806000811461144f576040519150601f19603f3d011682016040523d82523d6000602084013e611454565b606091505b509150915061146486838361146e565b9695505050505050565b6060826114835761147e826114ca565b610621565b815115801561149a57506001600160a01b0384163b155b156114c357604051639996b31560e01b81526001600160a01b03851660048201526024016105bb565b5080610621565b8051156114da5780518082602001fd5b604051630a12f52160e11b815260040160405180910390fd5b80356001600160a01b038116811461085857600080fd5b60006020828403121561151c57600080fd5b610621826114f3565b60005b83811015611540578181015183820152602001611528565b50506000910152565b6020815260008251806020840152611568816040850160208701611525565b601f01601f19169190910160400192915050565b6000806040838503121561158f57600080fd5b611598836114f3565b946020939093013593505050565b6000806000606084860312156115bb57600080fd5b6115c4846114f3565b92506115d2602085016114f3565b9150604084013590509250925092565b6000602082840312156115f457600080fd5b5035919050565b6000806040838503121561160e57600080fd5b611617836114f3565b9150611625602084016114f3565b90509250929050565b634e487b7160e01b600052601160045260246000fd5b818103818111156104d9576104d961162e565b80820281158282048414176104d9576104d961162e565b60008261168b57634e487b7160e01b600052601260045260246000fd5b500490565b808201808211156104d9576104d961162e565b600181811c908216806116b757607f821691505b6020821081036116d757634e487b7160e01b600052602260045260246000fd5b50919050565b6000602082840312156116ef57600080fd5b815160ff8116811461062157600080fd5b60006020828403121561171257600080fd5b5051919050565b60006020828403121561172b57600080fd5b8151801515811461062157600080fd5b6000825161174d818460208701611525565b919091019291505056fea264697066735822122010dabc3ec530baabb2f61355a2f874e9f4f9e35065311c45025cb1181318c2dd64736f6c63430008190033","linkReferences":{}},"methodIdentifiers":{"allowance(address,address)":"dd62ed3e","approve(address,uint256)":"095ea7b3","balanceOf(address)":"70a08231","decimals()":"313ce567","depositFor(address,uint256)":"2f4f21e2","earned(address)":"008cc262","getReward()":"3d18b912","lastUpdateTime()":"c8f33c91","name()":"06fdde03","owner()":"8da5cb5b","pause()":"8456cb59","paused()":"5c975abb","renounceOwnership()":"715018a6","rewardPerToken()":"cd3daf9d","rewardPerTokenStored()":"df136d65","rewardRate()":"7b0a47ee","rewards(address)":"0700037d","setRewardRate(uint256)":"9e447fc6","stake(uint256)":"a694fc3a","stakingToken()":"72f702f3","symbol()":"95d89b41","totalSupply()":"18160ddd","transfer(address,uint256)":"a9059cbb","transferFrom(address,address,uint256)":"23b872dd","transferOwnership(address)":"f2fde38b","underlying()":"6f307dc3","unpause()":"3f4ba83a","userRewardPerTokenPaid(address)":"8b876347","withdraw(uint256)":"2e1a7d4d","withdrawTo(address,uint256)":"205c2878"},"id":75}